{
  "contractName": "Voting",
  "abi": [
    {
      "inputs": [
        {
          "internalType": "uint256",
          "name": "",
          "type": "uint256"
        },
        {
          "internalType": "uint256",
          "name": "",
          "type": "uint256"
        }
      ],
      "name": "candidates",
      "outputs": [
        {
          "internalType": "address",
          "name": "owner",
          "type": "address"
        },
        {
          "internalType": "string",
          "name": "name",
          "type": "string"
        }
      ],
      "stateMutability": "view",
      "type": "function"
    },
    {
      "inputs": [
        {
          "internalType": "uint256",
          "name": "",
          "type": "uint256"
        }
      ],
      "name": "elections",
      "outputs": [
        {
          "internalType": "string",
          "name": "title",
          "type": "string"
        },
        {
          "internalType": "uint256",
          "name": "beginRegistrationAtBlock",
          "type": "uint256"
        },
        {
          "internalType": "uint256",
          "name": "endRegistrationAtBlock",
          "type": "uint256"
        },
        {
          "internalType": "uint256",
          "name": "beginVotingAtBlock",
          "type": "uint256"
        },
        {
          "internalType": "uint256",
          "name": "endVotingAtBlock",
          "type": "uint256"
        }
      ],
      "stateMutability": "view",
      "type": "function"
    },
    {
      "inputs": [
        {
          "internalType": "address",
          "name": "",
          "type": "address"
        },
        {
          "internalType": "uint256",
          "name": "",
          "type": "uint256"
        }
      ],
      "name": "ownerElectionIds",
      "outputs": [
        {
          "internalType": "uint256",
          "name": "",
          "type": "uint256"
        }
      ],
      "stateMutability": "view",
      "type": "function"
    },
    {
      "inputs": [
        {
          "internalType": "uint256",
          "name": "",
          "type": "uint256"
        },
        {
          "internalType": "address",
          "name": "",
          "type": "address"
        }
      ],
      "name": "votes",
      "outputs": [
        {
          "internalType": "address",
          "name": "",
          "type": "address"
        }
      ],
      "stateMutability": "view",
      "type": "function"
    },
    {
      "inputs": [
        {
          "internalType": "string",
          "name": "_title",
          "type": "string"
        },
        {
          "internalType": "uint256",
          "name": "_beginRegistrationAtBlock",
          "type": "uint256"
        },
        {
          "internalType": "uint256",
          "name": "_endRegistrationAtBlock",
          "type": "uint256"
        },
        {
          "internalType": "uint256",
          "name": "_beginVotingAtBlock",
          "type": "uint256"
        },
        {
          "internalType": "uint256",
          "name": "_endVotingAtBlock",
          "type": "uint256"
        }
      ],
      "name": "createElection",
      "outputs": [
        {
          "internalType": "uint256",
          "name": "",
          "type": "uint256"
        }
      ],
      "stateMutability": "nonpayable",
      "type": "function"
    }
  ],
  "bytecode": "0x6080604052600160005534801561001557600080fd5b50610ed5806100256000396000f3fe608060405234801561001057600080fd5b50600436106100575760003560e01c80635e6fef011461005c5780637c851a5a146100905780637de14242146100c0578063d23254b4146100f1578063fda8946914610121575b600080fd5b610076600480360381019061007191906107f1565b610151565b6040516100879594939291906109e3565b60405180910390f35b6100aa60048036038101906100a59190610726565b61020f565b6040516100b79190610add565b60405180910390f35b6100da60048036038101906100d59190610856565b610240565b6040516100e89291906109b3565b60405180910390f35b61010b6004803603810190610106919061081a565b610329565b6040516101189190610998565b60405180910390f35b61013b60048036038101906101369190610762565b61036b565b6040516101489190610add565b60405180910390f35b600260205280600052604060002060009150905080600001805461017490610be8565b80601f01602080910402602001604051908101604052809291908181526020018280546101a090610be8565b80156101ed5780601f106101c2576101008083540402835291602001916101ed565b820191906000526020600020905b8154815290600101906020018083116101d057829003601f168201915b5050505050908060010154908060020154908060030154908060040154905085565b6001602052816000526040600020818154811061022b57600080fd5b90600052602060002001600091509150505481565b6003602052816000526040600020818154811061025c57600080fd5b9060005260206000209060020201600091509150508060000160009054906101000a900473ffffffffffffffffffffffffffffffffffffffff16908060010180546102a690610be8565b80601f01602080910402602001604051908101604052809291908181526020018280546102d290610be8565b801561031f5780601f106102f45761010080835404028352916020019161031f565b820191906000526020600020905b81548152906001019060200180831161030257829003601f168201915b5050505050905082565b60046020528160005260406000206020528060005260406000206000915091509054906101000a900473ffffffffffffffffffffffffffffffffffffffff1681565b6000808651116103b0576040517f08c379a00000000000000000000000000000000000000000000000000000000081526004016103a790610a3d565b60405180910390fd5b4285116103f2576040517f08c379a00000000000000000000000000000000000000000000000000000000081526004016103e990610a9d565b60405180910390fd5b848411610434576040517f08c379a000000000000000000000000000000000000000000000000000000000815260040161042b90610abd565b60405180910390fd5b838311610476576040517f08c379a000000000000000000000000000000000000000000000000000000000815260040161046d90610a5d565b60405180910390fd5b8282116104b8576040517f08c379a00000000000000000000000000000000000000000000000000000000081526004016104af90610a7d565b60405180910390fd5b6104c63387878787876104d1565b905095945050505050565b6000806104dc6105d4565b9050600160008973ffffffffffffffffffffffffffffffffffffffff1673ffffffffffffffffffffffffffffffffffffffff1681526020019081526020016000208190806001815401808255809150506001900390600052602060002001600090919091909150556040518060a001604052808881526020018781526020018681526020018581526020018481525060026000838152602001908152602001600020600082015181600001908051906020019061059a9291906105f1565b5060208201518160010155604082015181600201556060820151816003015560808201518160040155905050809150509695505050505050565b60008060008154809291906105e890610c4b565b91905055905090565b8280546105fd90610be8565b90600052602060002090601f01602090048101928261061f5760008555610666565b82601f1061063857805160ff1916838001178555610666565b82800160010185558215610666579182015b8281111561066557825182559160200191906001019061064a565b5b5090506106739190610677565b5090565b5b80821115610690576000816000905550600101610678565b5090565b60006106a76106a284610b1d565b610af8565b9050828152602081018484840111156106bf57600080fd5b6106ca848285610ba6565b509392505050565b6000813590506106e181610e71565b92915050565b600082601f8301126106f857600080fd5b8135610708848260208601610694565b91505092915050565b60008135905061072081610e88565b92915050565b6000806040838503121561073957600080fd5b6000610747858286016106d2565b925050602061075885828601610711565b9150509250929050565b600080600080600060a0868803121561077a57600080fd5b600086013567ffffffffffffffff81111561079457600080fd5b6107a0888289016106e7565b95505060206107b188828901610711565b94505060406107c288828901610711565b93505060606107d388828901610711565b92505060806107e488828901610711565b9150509295509295909350565b60006020828403121561080357600080fd5b600061081184828501610711565b91505092915050565b6000806040838503121561082d57600080fd5b600061083b85828601610711565b925050602061084c858286016106d2565b9150509250929050565b6000806040838503121561086957600080fd5b600061087785828601610711565b925050602061088885828601610711565b9150509250929050565b61089b81610b6a565b82525050565b60006108ac82610b4e565b6108b68185610b59565b93506108c6818560208601610bb5565b6108cf81610d21565b840191505092915050565b60006108e7601783610b59565b91506108f282610d32565b602082019050919050565b600061090a602983610b59565b915061091582610d5b565b604082019050919050565b600061092d601f83610b59565b915061093882610daa565b602082019050919050565b6000610950602583610b59565b915061095b82610dd3565b604082019050919050565b6000610973602583610b59565b915061097e82610e22565b604082019050919050565b61099281610b9c565b82525050565b60006020820190506109ad6000830184610892565b92915050565b60006040820190506109c86000830185610892565b81810360208301526109da81846108a1565b90509392505050565b600060a08201905081810360008301526109fd81886108a1565b9050610a0c6020830187610989565b610a196040830186610989565b610a266060830185610989565b610a336080830184610989565b9695505050505050565b60006020820190508181036000830152610a56816108da565b9050919050565b60006020820190508181036000830152610a76816108fd565b9050919050565b60006020820190508181036000830152610a9681610920565b9050919050565b60006020820190508181036000830152610ab681610943565b9050919050565b60006020820190508181036000830152610ad681610966565b9050919050565b6000602082019050610af26000830184610989565b92915050565b6000610b02610b13565b9050610b0e8282610c1a565b919050565b6000604051905090565b600067ffffffffffffffff821115610b3857610b37610cf2565b5b610b4182610d21565b9050602081019050919050565b600081519050919050565b600082825260208201905092915050565b6000610b7582610b7c565b9050919050565b600073ffffffffffffffffffffffffffffffffffffffff82169050919050565b6000819050919050565b82818337600083830152505050565b60005b83811015610bd3578082015181840152602081019050610bb8565b83811115610be2576000848401525b50505050565b60006002820490506001821680610c0057607f821691505b60208210811415610c1457610c13610cc3565b5b50919050565b610c2382610d21565b810181811067ffffffffffffffff82111715610c4257610c41610cf2565b5b80604052505050565b6000610c5682610b9c565b91507fffffffffffffffffffffffffffffffffffffffffffffffffffffffffffffffff821415610c8957610c88610c94565b5b600182019050919050565b7f4e487b7100000000000000000000000000000000000000000000000000000000600052601160045260246000fd5b7f4e487b7100000000000000000000000000000000000000000000000000000000600052602260045260246000fd5b7f4e487b7100000000000000000000000000000000000000000000000000000000600052604160045260246000fd5b6000601f19601f8301169050919050565b7f7469746c65206d757374206265206e6f6e2d656d707479000000000000000000600082015250565b7f766f74696e67206d75737420626567696e20616674657220726567697374726160008201527f74696f6e20656e64730000000000000000000000000000000000000000000000602082015250565b7f766f74696e67206d75737420656e6420616674657220697420626567696e7300600082015250565b7f726567697374726174696f6e206d75737420626567696e20696e20746865206660008201527f7574757265000000000000000000000000000000000000000000000000000000602082015250565b7f726567697374726174696f6e206d75737420656e64206166746572206974206260008201527f6567696e73000000000000000000000000000000000000000000000000000000602082015250565b610e7a81610b6a565b8114610e8557600080fd5b50565b610e9181610b9c565b8114610e9c57600080fd5b5056fea2646970667358221220825b96adf0be4880253223d8c0b9ddc0f5cb0b660abde9a88eceb4b3778d70f164736f6c63430008040033",
  "immutableReferences": {},
  "source": "// SPDX-License-Identifier: MIT\npragma solidity ^0.8.4;\n\ncontract Voting {\n    // State\n    // -------------------------------------------------------------------------\n\n    struct Candidate {\n        address owner;\n        string name;\n    }\n\n    struct Election {\n        // - metadata\n        string title;\n        // - start / end times\n        uint256 beginRegistrationAtBlock;\n        uint256 endRegistrationAtBlock;\n        uint256 beginVotingAtBlock;\n        uint256 endVotingAtBlock;\n    }\n\n    uint256 internal electionIdCounter = 1;\n    mapping(address => uint256[]) public ownerElectionIds;\n    mapping(uint256 => Election) public elections;\n    mapping(uint256 => Candidate[]) public candidates;\n    // electionId => [ voterAddress => candidateAddress ]\n    mapping(uint256 => mapping(address => address)) public votes;\n\n    // Public Functions\n    // -------------------------------------------------------------------------\n\n    function createElection(\n        string memory _title,\n        uint256 _beginRegistrationAtBlock,\n        uint256 _endRegistrationAtBlock,\n        uint256 _beginVotingAtBlock,\n        uint256 _endVotingAtBlock\n    ) public returns (uint256) {\n        require(bytes(_title).length > 0, \"title must be non-empty\");\n        require(\n            _beginRegistrationAtBlock > block.timestamp,\n            \"registration must begin in the future\"\n        );\n        require(\n            _endRegistrationAtBlock > _beginRegistrationAtBlock,\n            \"registration must end after it begins\"\n        );\n        require(\n            _beginVotingAtBlock > _endRegistrationAtBlock,\n            \"voting must begin after registration ends\"\n        );\n        require(\n            _endVotingAtBlock > _beginVotingAtBlock,\n            \"voting must end after it begins\"\n        );\n\n        return\n            _createElection(\n                msg.sender,\n                _title,\n                _beginRegistrationAtBlock,\n                _endRegistrationAtBlock,\n                _beginVotingAtBlock,\n                _endVotingAtBlock\n            );\n    }\n\n    // Private Functions\n    // -------------------------------------------------------------------------\n\n    function _createElection(\n        address _owner,\n        string memory _title,\n        uint256 _beginRegistrationAtBlock,\n        uint256 _endRegistrationAtBlock,\n        uint256 _beginVotingAtBlock,\n        uint256 _endVotingAtBlock\n    ) internal returns (uint256) {\n        uint256 _electionId = _nextElectionId();\n        ownerElectionIds[_owner].push(_electionId);\n        elections[_electionId] = Election(\n            _title,\n            _beginRegistrationAtBlock,\n            _endRegistrationAtBlock,\n            _beginVotingAtBlock,\n            _endVotingAtBlock\n        );\n        return _electionId;\n    }\n\n    function _nextElectionId() internal returns (uint256) {\n        return electionIdCounter++;\n    }\n}\n",
  "sourcePath": "/Users/jamierumbelow/code/ethhole-practice-projects/voting/eth/contracts/Voting.sol",
  "compiler": {
    "name": "solc",
    "version": "0.8.4+commit.c7e474f2.Emscripten.clang"
  },
  "schemaVersion": "3.4.1",
  "updatedAt": "2021-05-08T12:14:26.152Z",
  "devdoc": {
    "kind": "dev",
    "methods": {},
    "version": 1
  },
  "userdoc": {
    "kind": "user",
    "methods": {},
    "version": 1
  }
}