{
  "contractName": "Voting",
  "abi": [
    {
      "inputs": [
        {
          "internalType": "address",
          "name": "",
          "type": "address"
        },
        {
          "internalType": "uint256",
          "name": "",
          "type": "uint256"
        }
      ],
      "name": "candidatesElections",
      "outputs": [
        {
          "internalType": "uint256",
          "name": "",
          "type": "uint256"
        }
      ],
      "stateMutability": "view",
      "type": "function",
      "constant": true
    },
    {
      "inputs": [
        {
          "internalType": "uint256",
          "name": "",
          "type": "uint256"
        },
        {
          "internalType": "uint256",
          "name": "",
          "type": "uint256"
        }
      ],
      "name": "electionCandidates",
      "outputs": [
        {
          "internalType": "address",
          "name": "owner",
          "type": "address"
        },
        {
          "internalType": "string",
          "name": "name",
          "type": "string"
        }
      ],
      "stateMutability": "view",
      "type": "function",
      "constant": true
    },
    {
      "inputs": [
        {
          "internalType": "uint256",
          "name": "",
          "type": "uint256"
        }
      ],
      "name": "elections",
      "outputs": [
        {
          "internalType": "string",
          "name": "title",
          "type": "string"
        },
        {
          "internalType": "uint256",
          "name": "beginRegistrationAtBlock",
          "type": "uint256"
        },
        {
          "internalType": "uint256",
          "name": "endRegistrationAtBlock",
          "type": "uint256"
        },
        {
          "internalType": "uint256",
          "name": "beginVotingAtBlock",
          "type": "uint256"
        },
        {
          "internalType": "uint256",
          "name": "endVotingAtBlock",
          "type": "uint256"
        }
      ],
      "stateMutability": "view",
      "type": "function",
      "constant": true
    },
    {
      "inputs": [
        {
          "internalType": "address",
          "name": "",
          "type": "address"
        },
        {
          "internalType": "uint256",
          "name": "",
          "type": "uint256"
        }
      ],
      "name": "ownerElectionIds",
      "outputs": [
        {
          "internalType": "uint256",
          "name": "",
          "type": "uint256"
        }
      ],
      "stateMutability": "view",
      "type": "function",
      "constant": true
    },
    {
      "inputs": [
        {
          "internalType": "uint256",
          "name": "",
          "type": "uint256"
        },
        {
          "internalType": "address",
          "name": "",
          "type": "address"
        }
      ],
      "name": "votes",
      "outputs": [
        {
          "internalType": "address",
          "name": "",
          "type": "address"
        }
      ],
      "stateMutability": "view",
      "type": "function",
      "constant": true
    },
    {
      "inputs": [
        {
          "internalType": "string",
          "name": "_title",
          "type": "string"
        },
        {
          "internalType": "uint256",
          "name": "_beginRegistrationAtBlock",
          "type": "uint256"
        },
        {
          "internalType": "uint256",
          "name": "_endRegistrationAtBlock",
          "type": "uint256"
        },
        {
          "internalType": "uint256",
          "name": "_beginVotingAtBlock",
          "type": "uint256"
        },
        {
          "internalType": "uint256",
          "name": "_endVotingAtBlock",
          "type": "uint256"
        }
      ],
      "name": "createElection",
      "outputs": [
        {
          "internalType": "uint256",
          "name": "",
          "type": "uint256"
        }
      ],
      "stateMutability": "nonpayable",
      "type": "function"
    },
    {
      "inputs": [
        {
          "internalType": "uint256",
          "name": "_electionId",
          "type": "uint256"
        },
        {
          "internalType": "string",
          "name": "_name",
          "type": "string"
        }
      ],
      "name": "registerAsCandidate",
      "outputs": [],
      "stateMutability": "nonpayable",
      "type": "function"
    }
  ],
  "bytecode": "0x6080604052600160005534801561001557600080fd5b5061139d806100256000396000f3fe608060405234801561001057600080fd5b506004361061007d5760003560e01c80637c851a5a1161005b5780637c851a5a14610102578063a42c56f714610132578063d23254b414610163578063fda89469146101935761007d565b80635e6fef011461008257806372ff87b8146100b65780637b8e4816146100e6575b600080fd5b61009c60048036038101906100979190610ad5565b6101c3565b6040516100ad959493929190610d84565b60405180910390f35b6100d060048036038101906100cb9190610a0a565b610281565b6040516100dd9190610ede565b60405180910390f35b61010060048036038101906100fb9190610b3a565b6102b2565b005b61011c60048036038101906101179190610a0a565b6104f3565b6040516101299190610ede565b60405180910390f35b61014c60048036038101906101479190610b8e565b610524565b60405161015a929190610d54565b60405180910390f35b61017d60048036038101906101789190610afe565b61060d565b60405161018a9190610d39565b60405180910390f35b6101ad60048036038101906101a89190610a46565b61064f565b6040516101ba9190610ede565b60405180910390f35b60026020528060005260406000206000915090508060000180546101e690610fe9565b80601f016020809104026020016040519081016040528092919081815260200182805461021290610fe9565b801561025f5780601f106102345761010080835404028352916020019161025f565b820191906000526020600020905b81548152906001019060200180831161024257829003601f168201915b5050505050908060010154908060020154908060030154908060040154905085565b6004602052816000526040600020818154811061029d57600080fd5b90600052602060002001600091509150505481565b60006002600084815260200190815260200160002060010154141561030c576040517f08c379a000000000000000000000000000000000000000000000000000000000815260040161030390610e9e565b60405180910390fd5b60026000838152602001908152602001600020600101544211610364576040517f08c379a000000000000000000000000000000000000000000000000000000000815260040161035b90610dfe565b60405180910390fd5b600260008381526020019081526020016000206002015442106103bc576040517f08c379a00000000000000000000000000000000000000000000000000000000081526004016103b390610dde565b60405180910390fd5b6003600083815260200190815260200160002060405180604001604052803373ffffffffffffffffffffffffffffffffffffffff16815260200183815250908060018154018082558091505060019003906000526020600020906002020160009091909190915060008201518160000160006101000a81548173ffffffffffffffffffffffffffffffffffffffff021916908373ffffffffffffffffffffffffffffffffffffffff16021790555060208201518160010190805190602001906104869291906108d5565b505050600460003373ffffffffffffffffffffffffffffffffffffffff1673ffffffffffffffffffffffffffffffffffffffff1681526020019081526020016000208290806001815401808255809150506001900390600052602060002001600090919091909150555050565b6001602052816000526040600020818154811061050f57600080fd5b90600052602060002001600091509150505481565b6003602052816000526040600020818154811061054057600080fd5b9060005260206000209060020201600091509150508060000160009054906101000a900473ffffffffffffffffffffffffffffffffffffffff169080600101805461058a90610fe9565b80601f01602080910402602001604051908101604052809291908181526020018280546105b690610fe9565b80156106035780601f106105d857610100808354040283529160200191610603565b820191906000526020600020905b8154815290600101906020018083116105e657829003601f168201915b5050505050905082565b60056020528160005260406000206020528060005260406000206000915091509054906101000a900473ffffffffffffffffffffffffffffffffffffffff1681565b600080865111610694576040517f08c379a000000000000000000000000000000000000000000000000000000000815260040161068b90610e1e565b60405180910390fd5b4285116106d6576040517f08c379a00000000000000000000000000000000000000000000000000000000081526004016106cd90610e7e565b60405180910390fd5b848411610718576040517f08c379a000000000000000000000000000000000000000000000000000000000815260040161070f90610ebe565b60405180910390fd5b83831161075a576040517f08c379a000000000000000000000000000000000000000000000000000000000815260040161075190610e3e565b60405180910390fd5b82821161079c576040517f08c379a000000000000000000000000000000000000000000000000000000000815260040161079390610e5e565b60405180910390fd5b6107aa3387878787876107b5565b905095945050505050565b6000806107c06108b8565b9050600160008973ffffffffffffffffffffffffffffffffffffffff1673ffffffffffffffffffffffffffffffffffffffff1681526020019081526020016000208190806001815401808255809150506001900390600052602060002001600090919091909150556040518060a001604052808881526020018781526020018681526020018581526020018481525060026000838152602001908152602001600020600082015181600001908051906020019061087e9291906108d5565b5060208201518160010155604082015181600201556060820151816003015560808201518160040155905050809150509695505050505050565b60008060008154809291906108cc9061104c565b91905055905090565b8280546108e190610fe9565b90600052602060002090601f016020900481019282610903576000855561094a565b82601f1061091c57805160ff191683800117855561094a565b8280016001018555821561094a579182015b8281111561094957825182559160200191906001019061092e565b5b509050610957919061095b565b5090565b5b8082111561097457600081600090555060010161095c565b5090565b600061098b61098684610f1e565b610ef9565b9050828152602081018484840111156109a357600080fd5b6109ae848285610fa7565b509392505050565b6000813590506109c581611339565b92915050565b600082601f8301126109dc57600080fd5b81356109ec848260208601610978565b91505092915050565b600081359050610a0481611350565b92915050565b60008060408385031215610a1d57600080fd5b6000610a2b858286016109b6565b9250506020610a3c858286016109f5565b9150509250929050565b600080600080600060a08688031215610a5e57600080fd5b600086013567ffffffffffffffff811115610a7857600080fd5b610a84888289016109cb565b9550506020610a95888289016109f5565b9450506040610aa6888289016109f5565b9350506060610ab7888289016109f5565b9250506080610ac8888289016109f5565b9150509295509295909350565b600060208284031215610ae757600080fd5b6000610af5848285016109f5565b91505092915050565b60008060408385031215610b1157600080fd5b6000610b1f858286016109f5565b9250506020610b30858286016109b6565b9150509250929050565b60008060408385031215610b4d57600080fd5b6000610b5b858286016109f5565b925050602083013567ffffffffffffffff811115610b7857600080fd5b610b84858286016109cb565b9150509250929050565b60008060408385031215610ba157600080fd5b6000610baf858286016109f5565b9250506020610bc0858286016109f5565b9150509250929050565b610bd381610f6b565b82525050565b6000610be482610f4f565b610bee8185610f5a565b9350610bfe818560208601610fb6565b610c0781611122565b840191505092915050565b6000610c1f602c83610f5a565b9150610c2a82611133565b604082019050919050565b6000610c42602783610f5a565b9150610c4d82611182565b604082019050919050565b6000610c65601783610f5a565b9150610c70826111d1565b602082019050919050565b6000610c88602983610f5a565b9150610c93826111fa565b604082019050919050565b6000610cab601f83610f5a565b9150610cb682611249565b602082019050919050565b6000610cce602583610f5a565b9150610cd982611272565b604082019050919050565b6000610cf1601383610f5a565b9150610cfc826112c1565b602082019050919050565b6000610d14602583610f5a565b9150610d1f826112ea565b604082019050919050565b610d3381610f9d565b82525050565b6000602082019050610d4e6000830184610bca565b92915050565b6000604082019050610d696000830185610bca565b8181036020830152610d7b8184610bd9565b90509392505050565b600060a0820190508181036000830152610d9e8188610bd9565b9050610dad6020830187610d2a565b610dba6040830186610d2a565b610dc76060830185610d2a565b610dd46080830184610d2a565b9695505050505050565b60006020820190508181036000830152610df781610c12565b9050919050565b60006020820190508181036000830152610e1781610c35565b9050919050565b60006020820190508181036000830152610e3781610c58565b9050919050565b60006020820190508181036000830152610e5781610c7b565b9050919050565b60006020820190508181036000830152610e7781610c9e565b9050919050565b60006020820190508181036000830152610e9781610cc1565b9050919050565b60006020820190508181036000830152610eb781610ce4565b9050919050565b60006020820190508181036000830152610ed781610d07565b9050919050565b6000602082019050610ef36000830184610d2a565b92915050565b6000610f03610f14565b9050610f0f828261101b565b919050565b6000604051905090565b600067ffffffffffffffff821115610f3957610f386110f3565b5b610f4282611122565b9050602081019050919050565b600081519050919050565b600082825260208201905092915050565b6000610f7682610f7d565b9050919050565b600073ffffffffffffffffffffffffffffffffffffffff82169050919050565b6000819050919050565b82818337600083830152505050565b60005b83811015610fd4578082015181840152602081019050610fb9565b83811115610fe3576000848401525b50505050565b6000600282049050600182168061100157607f821691505b60208210811415611015576110146110c4565b5b50919050565b61102482611122565b810181811067ffffffffffffffff82111715611043576110426110f3565b5b80604052505050565b600061105782610f9d565b91507fffffffffffffffffffffffffffffffffffffffffffffffffffffffffffffffff82141561108a57611089611095565b5b600182019050919050565b7f4e487b7100000000000000000000000000000000000000000000000000000000600052601160045260246000fd5b7f4e487b7100000000000000000000000000000000000000000000000000000000600052602260045260246000fd5b7f4e487b7100000000000000000000000000000000000000000000000000000000600052604160045260246000fd5b6000601f19601f8301169050919050565b7f63616e277420726567697374657220616674657220726567697374726174696f60008201527f6e2068617320636c6f7365640000000000000000000000000000000000000000602082015250565b7f63616e277420726567697374657220756e74696c20726567697374726174696f60008201527f6e206f70656e7300000000000000000000000000000000000000000000000000602082015250565b7f7469746c65206d757374206265206e6f6e2d656d707479000000000000000000600082015250565b7f766f74696e67206d75737420626567696e20616674657220726567697374726160008201527f74696f6e20656e64730000000000000000000000000000000000000000000000602082015250565b7f766f74696e67206d75737420656e6420616674657220697420626567696e7300600082015250565b7f726567697374726174696f6e206d75737420626567696e20696e20746865206660008201527f7574757265000000000000000000000000000000000000000000000000000000602082015250565b7f756e6b6e6f776e205f656c656374696f6e496400000000000000000000000000600082015250565b7f726567697374726174696f6e206d75737420656e64206166746572206974206260008201527f6567696e73000000000000000000000000000000000000000000000000000000602082015250565b61134281610f6b565b811461134d57600080fd5b50565b61135981610f9d565b811461136457600080fd5b5056fea26469706673582212208ddc9b6a6d6a5b88a6f85d3b4e90f28597d772367f5a20415100aadc9333f0d464736f6c63430008040033",
  "immutableReferences": {},
  "source": "// SPDX-License-Identifier: MIT\npragma solidity ^0.8.4;\n\ncontract Voting {\n    // State\n    // -------------------------------------------------------------------------\n\n    struct Candidate {\n        address owner;\n        string name;\n    }\n\n    struct Election {\n        // - metadata\n        string title;\n        // - start / end times\n        uint256 beginRegistrationAtBlock;\n        uint256 endRegistrationAtBlock;\n        uint256 beginVotingAtBlock;\n        uint256 endVotingAtBlock;\n    }\n\n    uint256 internal electionIdCounter = 1;\n    mapping(address => uint256[]) public ownerElectionIds;\n    mapping(uint256 => Election) public elections;\n\n    mapping(uint256 => Candidate[]) public electionCandidates;\n    mapping(address => uint256[]) public candidatesElections;\n\n    // electionId => [ voterAddress => candidateAddress ]\n    mapping(uint256 => mapping(address => address)) public votes;\n\n    // Public Functions\n    // -------------------------------------------------------------------------\n\n    function createElection(\n        string memory _title,\n        uint256 _beginRegistrationAtBlock,\n        uint256 _endRegistrationAtBlock,\n        uint256 _beginVotingAtBlock,\n        uint256 _endVotingAtBlock\n    ) public returns (uint256) {\n        require(bytes(_title).length > 0, \"title must be non-empty\");\n        require(\n            _beginRegistrationAtBlock > block.timestamp,\n            \"registration must begin in the future\"\n        );\n        require(\n            _endRegistrationAtBlock > _beginRegistrationAtBlock,\n            \"registration must end after it begins\"\n        );\n        require(\n            _beginVotingAtBlock > _endRegistrationAtBlock,\n            \"voting must begin after registration ends\"\n        );\n        require(\n            _endVotingAtBlock > _beginVotingAtBlock,\n            \"voting must end after it begins\"\n        );\n\n        return\n            _createElection(\n                msg.sender,\n                _title,\n                _beginRegistrationAtBlock,\n                _endRegistrationAtBlock,\n                _beginVotingAtBlock,\n                _endVotingAtBlock\n            );\n    }\n\n    function registerAsCandidate(uint256 _electionId, string memory _name)\n        public\n    {\n        require(\n            elections[_electionId].beginRegistrationAtBlock != 0,\n            \"unknown _electionId\"\n        );\n        require(\n            block.timestamp > elections[_electionId].beginRegistrationAtBlock,\n            \"can't register until registration opens\"\n        );\n        require(\n            block.timestamp < elections[_electionId].endRegistrationAtBlock,\n            \"can't register after registration has closed\"\n        );\n\n        electionCandidates[_electionId].push(Candidate(msg.sender, _name));\n        candidatesElections[msg.sender].push(_electionId);\n    }\n\n    // Private Functions\n    // -------------------------------------------------------------------------\n\n    function _createElection(\n        address _owner,\n        string memory _title,\n        uint256 _beginRegistrationAtBlock,\n        uint256 _endRegistrationAtBlock,\n        uint256 _beginVotingAtBlock,\n        uint256 _endVotingAtBlock\n    ) internal returns (uint256) {\n        uint256 _electionId = _nextElectionId();\n        ownerElectionIds[_owner].push(_electionId);\n        elections[_electionId] = Election(\n            _title,\n            _beginRegistrationAtBlock,\n            _endRegistrationAtBlock,\n            _beginVotingAtBlock,\n            _endVotingAtBlock\n        );\n        return _electionId;\n    }\n\n    function _nextElectionId() internal returns (uint256) {\n        return electionIdCounter++;\n    }\n}\n",
  "sourcePath": "/Users/jamierumbelow/code/ethhole-practice-projects/voting/eth/contracts/Voting.sol",
  "compiler": {
    "name": "solc",
    "version": "0.8.4+commit.c7e474f2.Emscripten.clang"
  },
  "schemaVersion": "3.4.1",
  "updatedAt": "2021-05-08T12:27:34.687Z",
  "networkType": "ethereum",
  "devdoc": {
    "kind": "dev",
    "methods": {},
    "version": 1
  },
  "userdoc": {
    "kind": "user",
    "methods": {},
    "version": 1
  }
}