{
  "contractName": "Voting",
  "abi": [
    {
      "inputs": [
        {
          "internalType": "uint256",
          "name": "",
          "type": "uint256"
        }
      ],
      "name": "allElections",
      "outputs": [
        {
          "internalType": "uint256",
          "name": "",
          "type": "uint256"
        }
      ],
      "stateMutability": "view",
      "type": "function",
      "constant": true
    },
    {
      "inputs": [
        {
          "internalType": "uint256",
          "name": "",
          "type": "uint256"
        },
        {
          "internalType": "address",
          "name": "",
          "type": "address"
        }
      ],
      "name": "candidateVotes",
      "outputs": [
        {
          "internalType": "uint256",
          "name": "",
          "type": "uint256"
        }
      ],
      "stateMutability": "view",
      "type": "function",
      "constant": true
    },
    {
      "inputs": [
        {
          "internalType": "address",
          "name": "",
          "type": "address"
        },
        {
          "internalType": "uint256",
          "name": "",
          "type": "uint256"
        }
      ],
      "name": "candidatesElections",
      "outputs": [
        {
          "internalType": "bool",
          "name": "",
          "type": "bool"
        }
      ],
      "stateMutability": "view",
      "type": "function",
      "constant": true
    },
    {
      "inputs": [
        {
          "internalType": "uint256",
          "name": "",
          "type": "uint256"
        },
        {
          "internalType": "address",
          "name": "",
          "type": "address"
        }
      ],
      "name": "electionCandidates",
      "outputs": [
        {
          "internalType": "bool",
          "name": "",
          "type": "bool"
        }
      ],
      "stateMutability": "view",
      "type": "function",
      "constant": true
    },
    {
      "inputs": [
        {
          "internalType": "uint256",
          "name": "",
          "type": "uint256"
        },
        {
          "internalType": "uint256",
          "name": "",
          "type": "uint256"
        }
      ],
      "name": "electionCandidatesList",
      "outputs": [
        {
          "internalType": "address",
          "name": "owner",
          "type": "address"
        },
        {
          "internalType": "string",
          "name": "name",
          "type": "string"
        }
      ],
      "stateMutability": "view",
      "type": "function",
      "constant": true
    },
    {
      "inputs": [
        {
          "internalType": "uint256",
          "name": "",
          "type": "uint256"
        }
      ],
      "name": "elections",
      "outputs": [
        {
          "internalType": "string",
          "name": "title",
          "type": "string"
        },
        {
          "internalType": "uint256",
          "name": "beginRegistrationAt",
          "type": "uint256"
        },
        {
          "internalType": "uint256",
          "name": "endRegistrationAt",
          "type": "uint256"
        },
        {
          "internalType": "uint256",
          "name": "beginVotingAt",
          "type": "uint256"
        },
        {
          "internalType": "uint256",
          "name": "endVotingAt",
          "type": "uint256"
        }
      ],
      "stateMutability": "view",
      "type": "function",
      "constant": true
    },
    {
      "inputs": [
        {
          "internalType": "uint256",
          "name": "",
          "type": "uint256"
        },
        {
          "internalType": "address",
          "name": "",
          "type": "address"
        }
      ],
      "name": "hasVoted",
      "outputs": [
        {
          "internalType": "bool",
          "name": "",
          "type": "bool"
        }
      ],
      "stateMutability": "view",
      "type": "function",
      "constant": true
    },
    {
      "inputs": [
        {
          "internalType": "address",
          "name": "",
          "type": "address"
        },
        {
          "internalType": "uint256",
          "name": "",
          "type": "uint256"
        }
      ],
      "name": "ownerElectionIds",
      "outputs": [
        {
          "internalType": "bool",
          "name": "",
          "type": "bool"
        }
      ],
      "stateMutability": "view",
      "type": "function",
      "constant": true
    },
    {
      "inputs": [
        {
          "internalType": "string",
          "name": "_title",
          "type": "string"
        },
        {
          "internalType": "uint256",
          "name": "_beginRegistrationAt",
          "type": "uint256"
        },
        {
          "internalType": "uint256",
          "name": "_endRegistrationAt",
          "type": "uint256"
        },
        {
          "internalType": "uint256",
          "name": "_beginVotingAt",
          "type": "uint256"
        },
        {
          "internalType": "uint256",
          "name": "_endVotingAt",
          "type": "uint256"
        }
      ],
      "name": "createElection",
      "outputs": [
        {
          "internalType": "uint256",
          "name": "",
          "type": "uint256"
        }
      ],
      "stateMutability": "nonpayable",
      "type": "function"
    },
    {
      "inputs": [
        {
          "internalType": "uint256",
          "name": "_electionId",
          "type": "uint256"
        },
        {
          "internalType": "string",
          "name": "_name",
          "type": "string"
        }
      ],
      "name": "registerAsCandidate",
      "outputs": [],
      "stateMutability": "nonpayable",
      "type": "function"
    },
    {
      "inputs": [
        {
          "internalType": "uint256",
          "name": "_electionId",
          "type": "uint256"
        },
        {
          "internalType": "address",
          "name": "_candidate",
          "type": "address"
        }
      ],
      "name": "vote",
      "outputs": [],
      "stateMutability": "nonpayable",
      "type": "function"
    },
    {
      "inputs": [
        {
          "internalType": "uint256",
          "name": "_electionId",
          "type": "uint256"
        }
      ],
      "name": "getWinner",
      "outputs": [
        {
          "components": [
            {
              "internalType": "address",
              "name": "owner",
              "type": "address"
            },
            {
              "internalType": "string",
              "name": "name",
              "type": "string"
            }
          ],
          "internalType": "struct Voting.Candidate",
          "name": "winner",
          "type": "tuple"
        },
        {
          "internalType": "bool",
          "name": "tie",
          "type": "bool"
        }
      ],
      "stateMutability": "view",
      "type": "function",
      "constant": true
    },
    {
      "inputs": [],
      "name": "getAllElectionsLength",
      "outputs": [
        {
          "internalType": "uint256",
          "name": "",
          "type": "uint256"
        }
      ],
      "stateMutability": "view",
      "type": "function",
      "constant": true
    }
  ],
  "bytecode": "0x6080604052600160005534801561001557600080fd5b506122f6806100256000396000f3fe608060405234801561001057600080fd5b50600436106100cf5760003560e01c80637b8e48161161008c578063afa9c5b011610066578063afa9c5b01461024f578063b40210931461027f578063ce58a2a6146102af578063fda89469146102e0576100cf565b80637b8e4816146101e55780637c851a5a14610201578063ae175d8914610231576100cf565b806302d947ef146100d45780630e966aa7146100f05780634129b2c91461012057806343859632146101515780635e6fef011461018157806372ff87b8146101b5575b600080fd5b6100ee60048036038101906100e99190611630565b610310565b005b61010a60048036038101906101059190611630565b610571565b6040516101179190611a01565b60405180910390f35b61013a60048036038101906101359190611607565b6105a0565b604051610148929190611c36565b60405180910390f35b61016b60048036038101906101669190611630565b610a6a565b6040516101789190611a01565b60405180910390f35b61019b60048036038101906101969190611607565b610a99565b6040516101ac959493929190611a1c565b60405180910390f35b6101cf60048036038101906101ca919061153c565b610b57565b6040516101dc9190611a01565b60405180910390f35b6101ff60048036038101906101fa919061166c565b610b86565b005b61021b6004803603810190610216919061153c565b610d42565b6040516102289190611a01565b60405180910390f35b610239610d71565b6040516102469190611c66565b60405180910390f35b61026960048036038101906102649190611630565b610d7e565b6040516102769190611c66565b60405180910390f35b61029960048036038101906102949190611607565b610da3565b6040516102a69190611c66565b60405180910390f35b6102c960048036038101906102c491906116c0565b610dc7565b6040516102d79291906119d1565b60405180910390f35b6102fa60048036038101906102f59190611578565b610eb0565b6040516103079190611c66565b60405180910390f35b60006002600084815260200190815260200160002060010154141561036a576040517f08c379a000000000000000000000000000000000000000000000000000000000815260040161036190611bd6565b60405180910390fd5b60011515600660008373ffffffffffffffffffffffffffffffffffffffff1673ffffffffffffffffffffffffffffffffffffffff168152602001908152602001600020600084815260200190815260200160002060009054906101000a900460ff1615151461040e576040517f08c379a000000000000000000000000000000000000000000000000000000000815260040161040590611bb6565b60405180910390fd5b60026000838152602001908152602001600020600301544211610466576040517f08c379a000000000000000000000000000000000000000000000000000000000815260040161045d90611bf6565b60405180910390fd5b600260008381526020019081526020016000206004015442106104be576040517f08c379a00000000000000000000000000000000000000000000000000000000081526004016104b590611af6565b60405180910390fd5b600115156007600084815260200190815260200160002060003373ffffffffffffffffffffffffffffffffffffffff1673ffffffffffffffffffffffffffffffffffffffff16815260200190815260200160002060009054906101000a900460ff1615151415610563576040517f08c379a000000000000000000000000000000000000000000000000000000000815260040161055a90611a96565b60405180910390fd5b61056d8282611016565b5050565b60046020528160005260406000206020528060005260406000206000915091509054906101000a900460ff1681565b6105a86113d7565b60008060026000858152602001908152602001600020600101541415610603576040517f08c379a00000000000000000000000000000000000000000000000000000000081526004016105fa90611bd6565b60405180910390fd5b6002600084815260200190815260200160002060040154421161065b576040517f08c379a000000000000000000000000000000000000000000000000000000000815260040161065290611a76565b60405180910390fd5b60009050600560008481526020019081526020016000206000815481106106ab577f4e487b7100000000000000000000000000000000000000000000000000000000600052603260045260246000fd5b90600052602060002090600202016040518060400160405290816000820160009054906101000a900473ffffffffffffffffffffffffffffffffffffffff1673ffffffffffffffffffffffffffffffffffffffff1673ffffffffffffffffffffffffffffffffffffffff16815260200160018201805461072a90611d8e565b80601f016020809104026020016040519081016040528092919081815260200182805461075690611d8e565b80156107a35780601f10610778576101008083540402835291602001916107a3565b820191906000526020600020905b81548152906001019060200180831161078657829003601f168201915b505050505081525050915060008060005b6005600087815260200190815260200160002080549050811015610a6257600060056000888152602001908152602001600020828154811061081f577f4e487b7100000000000000000000000000000000000000000000000000000000600052603260045260246000fd5b90600052602060002090600202016040518060400160405290816000820160009054906101000a900473ffffffffffffffffffffffffffffffffffffffff1673ffffffffffffffffffffffffffffffffffffffff1673ffffffffffffffffffffffffffffffffffffffff16815260200160018201805461089e90611d8e565b80601f01602080910402602001604051908101604052809291908181526020018280546108ca90611d8e565b80156109175780601f106108ec57610100808354040283529160200191610917565b820191906000526020600020905b8154815290600101906020018083116108fa57829003601f168201915b505050505081525050905083600860008981526020019081526020016000206000836000015173ffffffffffffffffffffffffffffffffffffffff1673ffffffffffffffffffffffffffffffffffffffff1681526020019081526020016000205411156109e057819250600860008881526020019081526020016000206000826000015173ffffffffffffffffffffffffffffffffffffffff1673ffffffffffffffffffffffffffffffffffffffff168152602001908152602001600020549350809550610a4e565b83600860008981526020019081526020016000206000836000015173ffffffffffffffffffffffffffffffffffffffff1673ffffffffffffffffffffffffffffffffffffffff16815260200190815260200160002054148015610a435750818314155b15610a4d57600194505b5b508080610a5a90611df1565b9150506107b4565b505050915091565b60076020528160005260406000206020528060005260406000206000915091509054906101000a900460ff1681565b6002602052806000526040600020600091509050806000018054610abc90611d8e565b80601f0160208091040260200160405190810160405280929190818152602001828054610ae890611d8e565b8015610b355780601f10610b0a57610100808354040283529160200191610b35565b820191906000526020600020905b815481529060010190602001808311610b1857829003601f168201915b5050505050908060010154908060020154908060030154908060040154905085565b60066020528160005260406000206020528060005260406000206000915091509054906101000a900460ff1681565b600060026000848152602001908152602001600020600101541415610be0576040517f08c379a0000000000000000000000000000000000000000000000000000000008152600401610bd790611bd6565b60405180910390fd5b60026000838152602001908152602001600020600101544211610c38576040517f08c379a0000000000000000000000000000000000000000000000000000000008152600401610c2f90611ad6565b60405180910390fd5b60026000838152602001908152602001600020600201544210610c90576040517f08c379a0000000000000000000000000000000000000000000000000000000008152600401610c8790611ab6565b60405180910390fd5b600015156004600084815260200190815260200160002060003373ffffffffffffffffffffffffffffffffffffffff1673ffffffffffffffffffffffffffffffffffffffff16815260200190815260200160002060009054906101000a900460ff16151514610d34576040517f08c379a0000000000000000000000000000000000000000000000000000000008152600401610d2b90611b76565b60405180910390fd5b610d3e82826110e9565b5050565b60016020528160005260406000206020528060005260406000206000915091509054906101000a900460ff1681565b6000600380549050905090565b6008602052816000526040600020602052806000526040600020600091509150505481565b60038181548110610db357600080fd5b906000526020600020016000915090505481565b60056020528160005260406000208181548110610de357600080fd5b9060005260206000209060020201600091509150508060000160009054906101000a900473ffffffffffffffffffffffffffffffffffffffff1690806001018054610e2d90611d8e565b80601f0160208091040260200160405190810160405280929190818152602001828054610e5990611d8e565b8015610ea65780601f10610e7b57610100808354040283529160200191610ea6565b820191906000526020600020905b815481529060010190602001808311610e8957829003601f168201915b5050505050905082565b600080865111610ef5576040517f08c379a0000000000000000000000000000000000000000000000000000000008152600401610eec90611b16565b60405180910390fd5b428511610f37576040517f08c379a0000000000000000000000000000000000000000000000000000000008152600401610f2e90611b96565b60405180910390fd5b848411610f79576040517f08c379a0000000000000000000000000000000000000000000000000000000008152600401610f7090611c16565b60405180910390fd5b838311610fbb576040517f08c379a0000000000000000000000000000000000000000000000000000000008152600401610fb290611b36565b60405180910390fd5b828211610ffd576040517f08c379a0000000000000000000000000000000000000000000000000000000008152600401610ff490611b56565b60405180910390fd5b61100b33878787878761128c565b905095945050505050565b60016007600084815260200190815260200160002060003373ffffffffffffffffffffffffffffffffffffffff1673ffffffffffffffffffffffffffffffffffffffff16815260200190815260200160002060006101000a81548160ff0219169083151502179055506008600083815260200190815260200160002060008273ffffffffffffffffffffffffffffffffffffffff1673ffffffffffffffffffffffffffffffffffffffff16815260200190815260200160002060008154809291906110e090611df1565b91905055505050565b60016004600084815260200190815260200160002060003373ffffffffffffffffffffffffffffffffffffffff1673ffffffffffffffffffffffffffffffffffffffff16815260200190815260200160002060006101000a81548160ff0219169083151502179055506001600660003373ffffffffffffffffffffffffffffffffffffffff1673ffffffffffffffffffffffffffffffffffffffff168152602001908152602001600020600084815260200190815260200160002060006101000a81548160ff0219169083151502179055506005600083815260200190815260200160002060405180604001604052803373ffffffffffffffffffffffffffffffffffffffff16815260200183815250908060018154018082558091505060019003906000526020600020906002020160009091909190915060008201518160000160006101000a81548173ffffffffffffffffffffffffffffffffffffffff021916908373ffffffffffffffffffffffffffffffffffffffff1602179055506020820151816001019080519060200190611285929190611407565b5050505050565b6000806112976113ba565b905060018060008a73ffffffffffffffffffffffffffffffffffffffff1673ffffffffffffffffffffffffffffffffffffffff168152602001908152602001600020600083815260200190815260200160002060006101000a81548160ff0219169083151502179055506040518060a0016040528088815260200187815260200186815260200185815260200184815250600260008381526020019081526020016000206000820151816000019080519060200190611357929190611407565b50602082015181600101556040820151816002015560608201518160030155608082015181600401559050506003819080600181540180825580915050600190039060005260206000200160009091909190915055809150509695505050505050565b60008060008154809291906113ce90611df1565b91905055905090565b6040518060400160405280600073ffffffffffffffffffffffffffffffffffffffff168152602001606081525090565b82805461141390611d8e565b90600052602060002090601f016020900481019282611435576000855561147c565b82601f1061144e57805160ff191683800117855561147c565b8280016001018555821561147c579182015b8281111561147b578251825591602001919060010190611460565b5b509050611489919061148d565b5090565b5b808211156114a657600081600090555060010161148e565b5090565b60006114bd6114b884611ca6565b611c81565b9050828152602081018484840111156114d557600080fd5b6114e0848285611d4c565b509392505050565b6000813590506114f781612292565b92915050565b600082601f83011261150e57600080fd5b813561151e8482602086016114aa565b91505092915050565b600081359050611536816122a9565b92915050565b6000806040838503121561154f57600080fd5b600061155d858286016114e8565b925050602061156e85828601611527565b9150509250929050565b600080600080600060a0868803121561159057600080fd5b600086013567ffffffffffffffff8111156115aa57600080fd5b6115b6888289016114fd565b95505060206115c788828901611527565b94505060406115d888828901611527565b93505060606115e988828901611527565b92505060806115fa88828901611527565b9150509295509295909350565b60006020828403121561161957600080fd5b600061162784828501611527565b91505092915050565b6000806040838503121561164357600080fd5b600061165185828601611527565b9250506020611662858286016114e8565b9150509250929050565b6000806040838503121561167f57600080fd5b600061168d85828601611527565b925050602083013567ffffffffffffffff8111156116aa57600080fd5b6116b6858286016114fd565b9150509250929050565b600080604083850312156116d357600080fd5b60006116e185828601611527565b92505060206116f285828601611527565b9150509250929050565b61170581611d04565b82525050565b61171481611d04565b82525050565b61172381611d16565b82525050565b600061173482611cd7565b61173e8185611ce2565b935061174e818560208601611d5b565b61175781611ec7565b840191505092915050565b600061176d82611cd7565b6117778185611cf3565b9350611787818560208601611d5b565b61179081611ec7565b840191505092915050565b60006117a8602983611cf3565b91506117b382611ed8565b604082019050919050565b60006117cb601983611cf3565b91506117d682611f27565b602082019050919050565b60006117ee602c83611cf3565b91506117f982611f50565b604082019050919050565b6000611811602783611cf3565b915061181c82611f9f565b604082019050919050565b6000611834602183611cf3565b915061183f82611fee565b604082019050919050565b6000611857601783611cf3565b91506118628261203d565b602082019050919050565b600061187a602983611cf3565b915061188582612066565b604082019050919050565b600061189d601f83611cf3565b91506118a8826120b5565b602082019050919050565b60006118c0602e83611cf3565b91506118cb826120de565b604082019050919050565b60006118e3602583611cf3565b91506118ee8261212d565b604082019050919050565b6000611906602883611cf3565b91506119118261217c565b604082019050919050565b6000611929601383611cf3565b9150611934826121cb565b602082019050919050565b600061194c602483611cf3565b9150611957826121f4565b604082019050919050565b600061196f602583611cf3565b915061197a82612243565b604082019050919050565b600060408301600083015161199d60008601826116fc565b50602083015184820360208601526119b58282611729565b9150508091505092915050565b6119cb81611d42565b82525050565b60006040820190506119e6600083018561170b565b81810360208301526119f88184611762565b90509392505050565b6000602082019050611a16600083018461171a565b92915050565b600060a0820190508181036000830152611a368188611762565b9050611a4560208301876119c2565b611a5260408301866119c2565b611a5f60608301856119c2565b611a6c60808301846119c2565b9695505050505050565b60006020820190508181036000830152611a8f8161179b565b9050919050565b60006020820190508181036000830152611aaf816117be565b9050919050565b60006020820190508181036000830152611acf816117e1565b9050919050565b60006020820190508181036000830152611aef81611804565b9050919050565b60006020820190508181036000830152611b0f81611827565b9050919050565b60006020820190508181036000830152611b2f8161184a565b9050919050565b60006020820190508181036000830152611b4f8161186d565b9050919050565b60006020820190508181036000830152611b6f81611890565b9050919050565b60006020820190508181036000830152611b8f816118b3565b9050919050565b60006020820190508181036000830152611baf816118d6565b9050919050565b60006020820190508181036000830152611bcf816118f9565b9050919050565b60006020820190508181036000830152611bef8161191c565b9050919050565b60006020820190508181036000830152611c0f8161193f565b9050919050565b60006020820190508181036000830152611c2f81611962565b9050919050565b60006040820190508181036000830152611c508185611985565b9050611c5f602083018461171a565b9392505050565b6000602082019050611c7b60008301846119c2565b92915050565b6000611c8b611c9c565b9050611c978282611dc0565b919050565b6000604051905090565b600067ffffffffffffffff821115611cc157611cc0611e98565b5b611cca82611ec7565b9050602081019050919050565b600081519050919050565b600082825260208201905092915050565b600082825260208201905092915050565b6000611d0f82611d22565b9050919050565b60008115159050919050565b600073ffffffffffffffffffffffffffffffffffffffff82169050919050565b6000819050919050565b82818337600083830152505050565b60005b83811015611d79578082015181840152602081019050611d5e565b83811115611d88576000848401525b50505050565b60006002820490506001821680611da657607f821691505b60208210811415611dba57611db9611e69565b5b50919050565b611dc982611ec7565b810181811067ffffffffffffffff82111715611de857611de7611e98565b5b80604052505050565b6000611dfc82611d42565b91507fffffffffffffffffffffffffffffffffffffffffffffffffffffffffffffffff821415611e2f57611e2e611e3a565b5b600182019050919050565b7f4e487b7100000000000000000000000000000000000000000000000000000000600052601160045260246000fd5b7f4e487b7100000000000000000000000000000000000000000000000000000000600052602260045260246000fd5b7f4e487b7100000000000000000000000000000000000000000000000000000000600052604160045260246000fd5b6000601f19601f8301169050919050565b7f63616e2774206765742077696e6e6572206265666f726520766f74696e67206860008201527f617320636c6f7365640000000000000000000000000000000000000000000000602082015250565b7f63616e277420766f7465206d6f7265207468616e206f6e636500000000000000600082015250565b7f63616e277420726567697374657220616674657220726567697374726174696f60008201527f6e2068617320636c6f7365640000000000000000000000000000000000000000602082015250565b7f63616e277420726567697374657220756e74696c20726567697374726174696f60008201527f6e206f70656e7300000000000000000000000000000000000000000000000000602082015250565b7f63616e277420766f746520616674657220766f74696e672068617320656e646560008201527f6400000000000000000000000000000000000000000000000000000000000000602082015250565b7f7469746c65206d757374206265206e6f6e2d656d707479000000000000000000600082015250565b7f766f74696e67206d75737420626567696e20616674657220726567697374726160008201527f74696f6e20656e64730000000000000000000000000000000000000000000000602082015250565b7f766f74696e67206d75737420656e6420616674657220697420626567696e7300600082015250565b7f63616e2774207265726567697374657220616e20616c72656164792d6578697360008201527f74696e672063616e646964617465000000000000000000000000000000000000602082015250565b7f726567697374726174696f6e206d75737420626567696e20696e20746865206660008201527f7574757265000000000000000000000000000000000000000000000000000000602082015250565b7f5f63616e646964617465206e6f74207265676973746572656420696e205f656c60008201527f656374696f6e4964000000000000000000000000000000000000000000000000602082015250565b7f756e6b6e6f776e205f656c656374696f6e496400000000000000000000000000600082015250565b7f63616e277420766f7465206265666f726520766f74696e67206861732073746160008201527f7274656400000000000000000000000000000000000000000000000000000000602082015250565b7f726567697374726174696f6e206d75737420656e64206166746572206974206260008201527f6567696e73000000000000000000000000000000000000000000000000000000602082015250565b61229b81611d04565b81146122a657600080fd5b50565b6122b281611d42565b81146122bd57600080fd5b5056fea2646970667358221220f9d942d1bfab892a51dc206f3051dd2fd24a19acb5c6c6b9c4cbcfe24456cd8564736f6c63430008040033",
  "immutableReferences": {},
  "source": "// SPDX-License-Identifier: MIT\npragma solidity ^0.8.4;\n\ncontract Voting {\n    // State\n    // -------------------------------------------------------------------------\n\n    struct Candidate {\n        address owner;\n        string name;\n    }\n\n    struct Election {\n        // - metadata\n        string title;\n        // - start / end times\n        uint256 beginRegistrationAt;\n        uint256 endRegistrationAt;\n        uint256 beginVotingAt;\n        uint256 endVotingAt;\n    }\n\n    uint256 internal electionIdCounter = 1;\n\n    // ownerAddress => [ electionId => included ]\n    mapping(address => mapping(uint256 => bool)) public ownerElectionIds;\n    mapping(uint256 => Election) public elections;\n    uint256[] public allElections;\n\n    // electionId => [ candidateAddress => included ]\n    mapping(uint256 => mapping(address => bool)) public electionCandidates;\n    mapping(uint256 => Candidate[]) public electionCandidatesList;\n    // candidateAddress => [ electionId => included ]\n    mapping(address => mapping(uint256 => bool)) public candidatesElections;\n\n    // electionId => [ voterAddress => bool ]\n    mapping(uint256 => mapping(address => bool)) public hasVoted;\n    // electionId => [ candidateAddress => voteCount ]\n    mapping(uint256 => mapping(address => uint256)) public candidateVotes;\n\n    // Public Functions\n    // -------------------------------------------------------------------------\n\n    function createElection(\n        string memory _title,\n        uint256 _beginRegistrationAt,\n        uint256 _endRegistrationAt,\n        uint256 _beginVotingAt,\n        uint256 _endVotingAt\n    ) public returns (uint256) {\n        require(bytes(_title).length > 0, \"title must be non-empty\");\n        require(\n            _beginRegistrationAt > block.timestamp,\n            \"registration must begin in the future\"\n        );\n        require(\n            _endRegistrationAt > _beginRegistrationAt,\n            \"registration must end after it begins\"\n        );\n        require(\n            _beginVotingAt > _endRegistrationAt,\n            \"voting must begin after registration ends\"\n        );\n        require(\n            _endVotingAt > _beginVotingAt,\n            \"voting must end after it begins\"\n        );\n\n        return\n            _createElection(\n                msg.sender,\n                _title,\n                _beginRegistrationAt,\n                _endRegistrationAt,\n                _beginVotingAt,\n                _endVotingAt\n            );\n    }\n\n    function registerAsCandidate(uint256 _electionId, string memory _name)\n        public\n    {\n        require(\n            elections[_electionId].beginRegistrationAt != 0,\n            \"unknown _electionId\"\n        );\n        require(\n            block.timestamp > elections[_electionId].beginRegistrationAt,\n            \"can't register until registration opens\"\n        );\n        require(\n            block.timestamp < elections[_electionId].endRegistrationAt,\n            \"can't register after registration has closed\"\n        );\n        require(\n            electionCandidates[_electionId][msg.sender] == false,\n            \"can't reregister an already-existing candidate\"\n        );\n\n        _registerAsCandidate(_electionId, _name);\n    }\n\n    function vote(uint256 _electionId, address _candidate) public {\n        require(\n            elections[_electionId].beginRegistrationAt != 0,\n            \"unknown _electionId\"\n        );\n        require(\n            candidatesElections[_candidate][_electionId] == true,\n            \"_candidate not registered in _electionId\"\n        );\n        require(\n            block.timestamp > elections[_electionId].beginVotingAt,\n            \"can't vote before voting has started\"\n        );\n        require(\n            block.timestamp < elections[_electionId].endVotingAt,\n            \"can't vote after voting has ended\"\n        );\n        require(\n            hasVoted[_electionId][msg.sender] != true,\n            \"can't vote more than once\"\n        );\n\n        _vote(_electionId, _candidate);\n    }\n\n    function getWinner(uint256 _electionId)\n        public\n        view\n        returns (Candidate memory winner, bool tie)\n    {\n        require(\n            elections[_electionId].beginRegistrationAt != 0,\n            \"unknown _electionId\"\n        );\n        require(\n            block.timestamp > elections[_electionId].endVotingAt,\n            \"can't get winner before voting has closed\"\n        );\n\n        tie = false;\n        winner = electionCandidatesList[_electionId][0];\n        uint256 currWinningVotes = 0;\n        uint256 currWinningIndex = 0;\n\n        for (\n            uint256 index = 0;\n            index < electionCandidatesList[_electionId].length;\n            index++\n        ) {\n            Candidate memory candidate =\n                electionCandidatesList[_electionId][index];\n\n            if (\n                candidateVotes[_electionId][candidate.owner] > currWinningVotes\n            ) {\n                currWinningIndex = index;\n                currWinningVotes = candidateVotes[_electionId][candidate.owner];\n                winner = candidate;\n            } else if (\n                candidateVotes[_electionId][candidate.owner] ==\n                currWinningVotes &&\n                currWinningIndex != index\n            ) {\n                tie = true;\n            }\n        }\n    }\n\n    function getAllElectionsLength() public view returns (uint256) {\n        return allElections.length;\n    }\n\n    // Private Functions\n    // -------------------------------------------------------------------------\n\n    function _createElection(\n        address _owner,\n        string memory _title,\n        uint256 _beginRegistrationAt,\n        uint256 _endRegistrationAt,\n        uint256 _beginVotingAt,\n        uint256 _endVotingAt\n    ) internal returns (uint256) {\n        uint256 _electionId = _nextElectionId();\n        ownerElectionIds[_owner][_electionId] = true;\n        elections[_electionId] = Election(\n            _title,\n            _beginRegistrationAt,\n            _endRegistrationAt,\n            _beginVotingAt,\n            _endVotingAt\n        );\n        allElections.push(_electionId);\n        return _electionId;\n    }\n\n    function _registerAsCandidate(uint256 _electionId, string memory _name)\n        internal\n    {\n        electionCandidates[_electionId][msg.sender] = true;\n        candidatesElections[msg.sender][_electionId] = true;\n        electionCandidatesList[_electionId].push(Candidate(msg.sender, _name));\n    }\n\n    function _vote(uint256 _electionId, address _candidate) internal {\n        hasVoted[_electionId][msg.sender] = true;\n        candidateVotes[_electionId][_candidate]++;\n    }\n\n    function _nextElectionId() internal returns (uint256) {\n        return electionIdCounter++;\n    }\n}\n",
  "sourcePath": "/Users/jamierumbelow/code/ethhole-practice-projects/voting/eth/contracts/Voting.sol",
  "compiler": {
    "name": "solc",
    "version": "0.8.4+commit.c7e474f2.Emscripten.clang"
  },
  "schemaVersion": "3.4.1",
  "updatedAt": "2021-05-10T13:34:51.759Z",
  "networkType": "ethereum",
  "devdoc": {
    "kind": "dev",
    "methods": {},
    "version": 1
  },
  "userdoc": {
    "kind": "user",
    "methods": {},
    "version": 1
  }
}